{
	"dataTypes.sol": {
		"DataTypes": {
			"abi": [
				{
					"inputs": [],
					"name": "hey",
					"outputs": [
						{
							"internalType": "bool",
							"name": "",
							"type": "bool"
						}
					],
					"stateMutability": "view",
					"type": "function"
				},
				{
					"inputs": [],
					"name": "no",
					"outputs": [
						{
							"internalType": "bool",
							"name": "",
							"type": "bool"
						}
					],
					"stateMutability": "view",
					"type": "function"
				},
				{
					"inputs": [],
					"name": "u",
					"outputs": [
						{
							"internalType": "uint256",
							"name": "",
							"type": "uint256"
						}
					],
					"stateMutability": "view",
					"type": "function"
				},
				{
					"inputs": [],
					"name": "u256",
					"outputs": [
						{
							"internalType": "uint256",
							"name": "",
							"type": "uint256"
						}
					],
					"stateMutability": "view",
					"type": "function"
				},
				{
					"inputs": [],
					"name": "u8",
					"outputs": [
						{
							"internalType": "uint8",
							"name": "",
							"type": "uint8"
						}
					],
					"stateMutability": "view",
					"type": "function"
				}
			],
			"devdoc": {
				"kind": "dev",
				"methods": {},
				"version": 1
			},
			"evm": {
				"assembly": "    /* \"dataTypes.sol\":58:368  contract DataTypes {... */\n  mstore(0x40, 0x80)\n    /* \"dataTypes.sol\":121:125  true */\n  0x01\n    /* \"dataTypes.sol\":104:125  bool public no = true */\n  0x00\n  exp(0x0100, 0x01)\n  dup2\n  sload\n  dup2\n  0xff\n  mul\n  not\n  and\n  swap1\n  dup4\n  iszero\n  iszero\n  mul\n  or\n  swap1\n  sstore\n  pop\n    /* \"dataTypes.sol\":308:309  1 */\n  0x01\n    /* \"dataTypes.sol\":290:309  uint8 public u8 = 1 */\n  0x00\n  exp(0x0100, 0x02)\n  dup2\n  sload\n  dup2\n  0xff\n  mul\n  not\n  and\n  swap1\n  dup4\n  0xff\n  and\n  mul\n  or\n  swap1\n  sstore\n  pop\n    /* \"dataTypes.sol\":337:340  456 */\n  0x01c8\n    /* \"dataTypes.sol\":315:340  uint256 public u256 = 456 */\n  0x01\n  sstore\n    /* \"dataTypes.sol\":362:365  123 */\n  0x7b\n    /* \"dataTypes.sol\":346:365  uint public u = 123 */\n  0x02\n  sstore\n    /* \"dataTypes.sol\":58:368  contract DataTypes {... */\n  callvalue\n  dup1\n  iszero\n  tag_1\n  jumpi\n  0x00\n  dup1\n  revert\ntag_1:\n  pop\n  dataSize(sub_0)\n  dup1\n  dataOffset(sub_0)\n  0x00\n  codecopy\n  0x00\n  return\nstop\n\nsub_0: assembly {\n        /* \"dataTypes.sol\":58:368  contract DataTypes {... */\n      mstore(0x40, 0x80)\n      callvalue\n      dup1\n      iszero\n      tag_1\n      jumpi\n      0x00\n      dup1\n      revert\n    tag_1:\n      pop\n      jumpi(tag_2, lt(calldatasize, 0x04))\n      shr(0xe0, calldataload(0x00))\n      dup1\n      0x459b1acf\n      eq\n      tag_3\n      jumpi\n      dup1\n      0xab3a58a3\n      eq\n      tag_4\n      jumpi\n      dup1\n      0xb6c52ae8\n      eq\n      tag_5\n      jumpi\n      dup1\n      0xbde2b573\n      eq\n      tag_6\n      jumpi\n      dup1\n      0xc6a898c5\n      eq\n      tag_7\n      jumpi\n    tag_2:\n      0x00\n      dup1\n      revert\n        /* \"dataTypes.sol\":315:340  uint256 public u256 = 456 */\n    tag_3:\n      tag_8\n      tag_9\n      jump\t// in\n    tag_8:\n      mload(0x40)\n      tag_10\n      swap2\n      swap1\n      tag_11\n      jump\t// in\n    tag_10:\n      mload(0x40)\n      dup1\n      swap2\n      sub\n      swap1\n      return\n        /* \"dataTypes.sol\":290:309  uint8 public u8 = 1 */\n    tag_4:\n      tag_12\n      tag_13\n      jump\t// in\n    tag_12:\n      mload(0x40)\n      tag_14\n      swap2\n      swap1\n      tag_15\n      jump\t// in\n    tag_14:\n      mload(0x40)\n      dup1\n      swap2\n      sub\n      swap1\n      return\n        /* \"dataTypes.sol\":104:125  bool public no = true */\n    tag_5:\n      tag_16\n      tag_17\n      jump\t// in\n    tag_16:\n      mload(0x40)\n      tag_18\n      swap2\n      swap1\n      tag_19\n      jump\t// in\n    tag_18:\n      mload(0x40)\n      dup1\n      swap2\n      sub\n      swap1\n      return\n        /* \"dataTypes.sol\":83:98  bool public hey */\n    tag_6:\n      tag_20\n      tag_21\n      jump\t// in\n    tag_20:\n      mload(0x40)\n      tag_22\n      swap2\n      swap1\n      tag_19\n      jump\t// in\n    tag_22:\n      mload(0x40)\n      dup1\n      swap2\n      sub\n      swap1\n      return\n        /* \"dataTypes.sol\":346:365  uint public u = 123 */\n    tag_7:\n      tag_23\n      tag_24\n      jump\t// in\n    tag_23:\n      mload(0x40)\n      tag_25\n      swap2\n      swap1\n      tag_11\n      jump\t// in\n    tag_25:\n      mload(0x40)\n      dup1\n      swap2\n      sub\n      swap1\n      return\n        /* \"dataTypes.sol\":315:340  uint256 public u256 = 456 */\n    tag_9:\n      sload(0x01)\n      dup2\n      jump\t// out\n        /* \"dataTypes.sol\":290:309  uint8 public u8 = 1 */\n    tag_13:\n      0x00\n      0x02\n      swap1\n      sload\n      swap1\n      0x0100\n      exp\n      swap1\n      div\n      0xff\n      and\n      dup2\n      jump\t// out\n        /* \"dataTypes.sol\":104:125  bool public no = true */\n    tag_17:\n      0x00\n      0x01\n      swap1\n      sload\n      swap1\n      0x0100\n      exp\n      swap1\n      div\n      0xff\n      and\n      dup2\n      jump\t// out\n        /* \"dataTypes.sol\":83:98  bool public hey */\n    tag_21:\n      0x00\n      dup1\n      sload\n      swap1\n      0x0100\n      exp\n      swap1\n      div\n      0xff\n      and\n      dup2\n      jump\t// out\n        /* \"dataTypes.sol\":346:365  uint public u = 123 */\n    tag_24:\n      sload(0x02)\n      dup2\n      jump\t// out\n        /* \"#utility.yul\":7:84   */\n    tag_26:\n        /* \"#utility.yul\":44:51   */\n      0x00\n        /* \"#utility.yul\":73:78   */\n      dup2\n        /* \"#utility.yul\":62:78   */\n      swap1\n      pop\n        /* \"#utility.yul\":7:84   */\n      swap2\n      swap1\n      pop\n      jump\t// out\n        /* \"#utility.yul\":90:208   */\n    tag_27:\n        /* \"#utility.yul\":177:201   */\n      tag_35\n        /* \"#utility.yul\":195:200   */\n      dup2\n        /* \"#utility.yul\":177:201   */\n      tag_26\n      jump\t// in\n    tag_35:\n        /* \"#utility.yul\":172:175   */\n      dup3\n        /* \"#utility.yul\":165:202   */\n      mstore\n        /* \"#utility.yul\":90:208   */\n      pop\n      pop\n      jump\t// out\n        /* \"#utility.yul\":214:436   */\n    tag_11:\n        /* \"#utility.yul\":307:311   */\n      0x00\n        /* \"#utility.yul\":345:347   */\n      0x20\n        /* \"#utility.yul\":334:343   */\n      dup3\n        /* \"#utility.yul\":330:348   */\n      add\n        /* \"#utility.yul\":322:348   */\n      swap1\n      pop\n        /* \"#utility.yul\":358:429   */\n      tag_37\n        /* \"#utility.yul\":426:427   */\n      0x00\n        /* \"#utility.yul\":415:424   */\n      dup4\n        /* \"#utility.yul\":411:428   */\n      add\n        /* \"#utility.yul\":402:408   */\n      dup5\n        /* \"#utility.yul\":358:429   */\n      tag_27\n      jump\t// in\n    tag_37:\n        /* \"#utility.yul\":214:436   */\n      swap3\n      swap2\n      pop\n      pop\n      jump\t// out\n        /* \"#utility.yul\":442:528   */\n    tag_28:\n        /* \"#utility.yul\":477:484   */\n      0x00\n        /* \"#utility.yul\":517:521   */\n      0xff\n        /* \"#utility.yul\":510:515   */\n      dup3\n        /* \"#utility.yul\":506:522   */\n      and\n        /* \"#utility.yul\":495:522   */\n      swap1\n      pop\n        /* \"#utility.yul\":442:528   */\n      swap2\n      swap1\n      pop\n      jump\t// out\n        /* \"#utility.yul\":534:646   */\n    tag_29:\n        /* \"#utility.yul\":617:639   */\n      tag_40\n        /* \"#utility.yul\":633:638   */\n      dup2\n        /* \"#utility.yul\":617:639   */\n      tag_28\n      jump\t// in\n    tag_40:\n        /* \"#utility.yul\":612:615   */\n      dup3\n        /* \"#utility.yul\":605:640   */\n      mstore\n        /* \"#utility.yul\":534:646   */\n      pop\n      pop\n      jump\t// out\n        /* \"#utility.yul\":652:866   */\n    tag_15:\n        /* \"#utility.yul\":741:745   */\n      0x00\n        /* \"#utility.yul\":779:781   */\n      0x20\n        /* \"#utility.yul\":768:777   */\n      dup3\n        /* \"#utility.yul\":764:782   */\n      add\n        /* \"#utility.yul\":756:782   */\n      swap1\n      pop\n        /* \"#utility.yul\":792:859   */\n      tag_42\n        /* \"#utility.yul\":856:857   */\n      0x00\n        /* \"#utility.yul\":845:854   */\n      dup4\n        /* \"#utility.yul\":841:858   */\n      add\n        /* \"#utility.yul\":832:838   */\n      dup5\n        /* \"#utility.yul\":792:859   */\n      tag_29\n      jump\t// in\n    tag_42:\n        /* \"#utility.yul\":652:866   */\n      swap3\n      swap2\n      pop\n      pop\n      jump\t// out\n        /* \"#utility.yul\":872:962   */\n    tag_30:\n        /* \"#utility.yul\":906:913   */\n      0x00\n        /* \"#utility.yul\":949:954   */\n      dup2\n        /* \"#utility.yul\":942:955   */\n      iszero\n        /* \"#utility.yul\":935:956   */\n      iszero\n        /* \"#utility.yul\":924:956   */\n      swap1\n      pop\n        /* \"#utility.yul\":872:962   */\n      swap2\n      swap1\n      pop\n      jump\t// out\n        /* \"#utility.yul\":968:1077   */\n    tag_31:\n        /* \"#utility.yul\":1049:1070   */\n      tag_45\n        /* \"#utility.yul\":1064:1069   */\n      dup2\n        /* \"#utility.yul\":1049:1070   */\n      tag_30\n      jump\t// in\n    tag_45:\n        /* \"#utility.yul\":1044:1047   */\n      dup3\n        /* \"#utility.yul\":1037:1071   */\n      mstore\n        /* \"#utility.yul\":968:1077   */\n      pop\n      pop\n      jump\t// out\n        /* \"#utility.yul\":1083:1293   */\n    tag_19:\n        /* \"#utility.yul\":1170:1174   */\n      0x00\n        /* \"#utility.yul\":1208:1210   */\n      0x20\n        /* \"#utility.yul\":1197:1206   */\n      dup3\n        /* \"#utility.yul\":1193:1211   */\n      add\n        /* \"#utility.yul\":1185:1211   */\n      swap1\n      pop\n        /* \"#utility.yul\":1221:1286   */\n      tag_47\n        /* \"#utility.yul\":1283:1284   */\n      0x00\n        /* \"#utility.yul\":1272:1281   */\n      dup4\n        /* \"#utility.yul\":1268:1285   */\n      add\n        /* \"#utility.yul\":1259:1265   */\n      dup5\n        /* \"#utility.yul\":1221:1286   */\n      tag_31\n      jump\t// in\n    tag_47:\n        /* \"#utility.yul\":1083:1293   */\n      swap3\n      swap2\n      pop\n      pop\n      jump\t// out\n\n    auxdata: 0xa2646970667358221220d5af8d3d95c9bd1040e248148e723bd3aa378c6c564003dc4b56b0b6bec2baeb64736f6c634300081a0033\n}\n",
				"bytecode": {
					"linkReferences": {},
					"object": "608060405260015f60016101000a81548160ff02191690831515021790555060015f60026101000a81548160ff021916908360ff1602179055506101c8600155607b600255348015604e575f80fd5b506101fd8061005c5f395ff3fe608060405234801561000f575f80fd5b5060043610610055575f3560e01c8063459b1acf14610059578063ab3a58a314610077578063b6c52ae814610095578063bde2b573146100b3578063c6a898c5146100d1575b5f80fd5b6100616100ef565b60405161006e9190610147565b60405180910390f35b61007f6100f5565b60405161008c919061017b565b60405180910390f35b61009d610107565b6040516100aa91906101ae565b60405180910390f35b6100bb610119565b6040516100c891906101ae565b60405180910390f35b6100d9610129565b6040516100e69190610147565b60405180910390f35b60015481565b5f60029054906101000a900460ff1681565b5f60019054906101000a900460ff1681565b5f8054906101000a900460ff1681565b60025481565b5f819050919050565b6101418161012f565b82525050565b5f60208201905061015a5f830184610138565b92915050565b5f60ff82169050919050565b61017581610160565b82525050565b5f60208201905061018e5f83018461016c565b92915050565b5f8115159050919050565b6101a881610194565b82525050565b5f6020820190506101c15f83018461019f565b9291505056fea2646970667358221220d5af8d3d95c9bd1040e248148e723bd3aa378c6c564003dc4b56b0b6bec2baeb64736f6c634300081a0033",
					"opcodes": "PUSH1 0x80 PUSH1 0x40 MSTORE PUSH1 0x1 PUSH0 PUSH1 0x1 PUSH2 0x100 EXP DUP2 SLOAD DUP2 PUSH1 0xFF MUL NOT AND SWAP1 DUP4 ISZERO ISZERO MUL OR SWAP1 SSTORE POP PUSH1 0x1 PUSH0 PUSH1 0x2 PUSH2 0x100 EXP DUP2 SLOAD DUP2 PUSH1 0xFF MUL NOT AND SWAP1 DUP4 PUSH1 0xFF AND MUL OR SWAP1 SSTORE POP PUSH2 0x1C8 PUSH1 0x1 SSTORE PUSH1 0x7B PUSH1 0x2 SSTORE CALLVALUE DUP1 ISZERO PUSH1 0x4E JUMPI PUSH0 DUP1 REVERT JUMPDEST POP PUSH2 0x1FD DUP1 PUSH2 0x5C PUSH0 CODECOPY PUSH0 RETURN INVALID PUSH1 0x80 PUSH1 0x40 MSTORE CALLVALUE DUP1 ISZERO PUSH2 0xF JUMPI PUSH0 DUP1 REVERT JUMPDEST POP PUSH1 0x4 CALLDATASIZE LT PUSH2 0x55 JUMPI PUSH0 CALLDATALOAD PUSH1 0xE0 SHR DUP1 PUSH4 0x459B1ACF EQ PUSH2 0x59 JUMPI DUP1 PUSH4 0xAB3A58A3 EQ PUSH2 0x77 JUMPI DUP1 PUSH4 0xB6C52AE8 EQ PUSH2 0x95 JUMPI DUP1 PUSH4 0xBDE2B573 EQ PUSH2 0xB3 JUMPI DUP1 PUSH4 0xC6A898C5 EQ PUSH2 0xD1 JUMPI JUMPDEST PUSH0 DUP1 REVERT JUMPDEST PUSH2 0x61 PUSH2 0xEF JUMP JUMPDEST PUSH1 0x40 MLOAD PUSH2 0x6E SWAP2 SWAP1 PUSH2 0x147 JUMP JUMPDEST PUSH1 0x40 MLOAD DUP1 SWAP2 SUB SWAP1 RETURN JUMPDEST PUSH2 0x7F PUSH2 0xF5 JUMP JUMPDEST PUSH1 0x40 MLOAD PUSH2 0x8C SWAP2 SWAP1 PUSH2 0x17B JUMP JUMPDEST PUSH1 0x40 MLOAD DUP1 SWAP2 SUB SWAP1 RETURN JUMPDEST PUSH2 0x9D PUSH2 0x107 JUMP JUMPDEST PUSH1 0x40 MLOAD PUSH2 0xAA SWAP2 SWAP1 PUSH2 0x1AE JUMP JUMPDEST PUSH1 0x40 MLOAD DUP1 SWAP2 SUB SWAP1 RETURN JUMPDEST PUSH2 0xBB PUSH2 0x119 JUMP JUMPDEST PUSH1 0x40 MLOAD PUSH2 0xC8 SWAP2 SWAP1 PUSH2 0x1AE JUMP JUMPDEST PUSH1 0x40 MLOAD DUP1 SWAP2 SUB SWAP1 RETURN JUMPDEST PUSH2 0xD9 PUSH2 0x129 JUMP JUMPDEST PUSH1 0x40 MLOAD PUSH2 0xE6 SWAP2 SWAP1 PUSH2 0x147 JUMP JUMPDEST PUSH1 0x40 MLOAD DUP1 SWAP2 SUB SWAP1 RETURN JUMPDEST PUSH1 0x1 SLOAD DUP2 JUMP JUMPDEST PUSH0 PUSH1 0x2 SWAP1 SLOAD SWAP1 PUSH2 0x100 EXP SWAP1 DIV PUSH1 0xFF AND DUP2 JUMP JUMPDEST PUSH0 PUSH1 0x1 SWAP1 SLOAD SWAP1 PUSH2 0x100 EXP SWAP1 DIV PUSH1 0xFF AND DUP2 JUMP JUMPDEST PUSH0 DUP1 SLOAD SWAP1 PUSH2 0x100 EXP SWAP1 DIV PUSH1 0xFF AND DUP2 JUMP JUMPDEST PUSH1 0x2 SLOAD DUP2 JUMP JUMPDEST PUSH0 DUP2 SWAP1 POP SWAP2 SWAP1 POP JUMP JUMPDEST PUSH2 0x141 DUP2 PUSH2 0x12F JUMP JUMPDEST DUP3 MSTORE POP POP JUMP JUMPDEST PUSH0 PUSH1 0x20 DUP3 ADD SWAP1 POP PUSH2 0x15A PUSH0 DUP4 ADD DUP5 PUSH2 0x138 JUMP JUMPDEST SWAP3 SWAP2 POP POP JUMP JUMPDEST PUSH0 PUSH1 0xFF DUP3 AND SWAP1 POP SWAP2 SWAP1 POP JUMP JUMPDEST PUSH2 0x175 DUP2 PUSH2 0x160 JUMP JUMPDEST DUP3 MSTORE POP POP JUMP JUMPDEST PUSH0 PUSH1 0x20 DUP3 ADD SWAP1 POP PUSH2 0x18E PUSH0 DUP4 ADD DUP5 PUSH2 0x16C JUMP JUMPDEST SWAP3 SWAP2 POP POP JUMP JUMPDEST PUSH0 DUP2 ISZERO ISZERO SWAP1 POP SWAP2 SWAP1 POP JUMP JUMPDEST PUSH2 0x1A8 DUP2 PUSH2 0x194 JUMP JUMPDEST DUP3 MSTORE POP POP JUMP JUMPDEST PUSH0 PUSH1 0x20 DUP3 ADD SWAP1 POP PUSH2 0x1C1 PUSH0 DUP4 ADD DUP5 PUSH2 0x19F JUMP JUMPDEST SWAP3 SWAP2 POP POP JUMP INVALID LOG2 PUSH5 0x6970667358 0x22 SLT KECCAK256 0xD5 0xAF DUP14 RETURNDATASIZE SWAP6 0xC9 0xBD LT BLOCKHASH 0xE2 BASEFEE EQ DUP15 PUSH19 0x3BD3AA378C6C564003DC4B56B0B6BEC2BAEB64 PUSH20 0x6F6C634300081A00330000000000000000000000 "
				},
				"gasEstimates": {
					"creation": {
						"codeDepositCost": "101800",
						"executionCost": "92989",
						"totalCost": "194789"
					},
					"external": {
						"hey()": "2507",
						"no()": "2538",
						"u()": "2491",
						"u256()": "2403",
						"u8()": "2516"
					}
				},
				"methodIdentifiers": {
					"hey()": "bde2b573",
					"no()": "b6c52ae8",
					"u()": "c6a898c5",
					"u256()": "459b1acf",
					"u8()": "ab3a58a3"
				}
			},
			"storageLayout": {
				"storage": [
					{
						"astId": 3,
						"contract": "dataTypes.sol:DataTypes",
						"label": "hey",
						"offset": 0,
						"slot": "0",
						"type": "t_bool"
					},
					{
						"astId": 6,
						"contract": "dataTypes.sol:DataTypes",
						"label": "no",
						"offset": 1,
						"slot": "0",
						"type": "t_bool"
					},
					{
						"astId": 9,
						"contract": "dataTypes.sol:DataTypes",
						"label": "u8",
						"offset": 2,
						"slot": "0",
						"type": "t_uint8"
					},
					{
						"astId": 12,
						"contract": "dataTypes.sol:DataTypes",
						"label": "u256",
						"offset": 0,
						"slot": "1",
						"type": "t_uint256"
					},
					{
						"astId": 15,
						"contract": "dataTypes.sol:DataTypes",
						"label": "u",
						"offset": 0,
						"slot": "2",
						"type": "t_uint256"
					}
				],
				"types": {
					"t_bool": {
						"encoding": "inplace",
						"label": "bool",
						"numberOfBytes": "1"
					},
					"t_uint256": {
						"encoding": "inplace",
						"label": "uint256",
						"numberOfBytes": "32"
					},
					"t_uint8": {
						"encoding": "inplace",
						"label": "uint8",
						"numberOfBytes": "1"
					}
				}
			},
			"userdoc": {
				"kind": "user",
				"methods": {},
				"version": 1
			}
		}
	}
}